:100000000C945D000C9485000C9485000C94850084
:100010000C9485000C9485000C9485000C9485004C
:100020000C9485000C9485000C9485000C9485003C
:100030000C9485000C9485000C9485000C9485002C
:100040000C9433060C9485000C94A3060C947D0646
:100050000C9485000C9485000C9485000C9485000C
:100060000C94D5060C9485000000000800020100E5
:100070000003040700000000000000000000000072
:10008000250028002B0000000000240027002A0083
:10009000040404040404040402020202020203032E
:1000A0000303030301020408102040800102040836
:1000B0001020010204081020F40711241FBECFEF06
:1000C000D8E0DEBFCDBF11E0A0E0B1E0EEE1F1E2AB
:1000D00002C005900D92A037B107D9F723E0A0E741
:1000E000B1E001C01D92A635B207E1F710E0CDE501
:1000F000D0E004C02197FE010E948710CC35D107C3
:10010000C9F70E943D080C948D100C94000090E0FB
:10011000FC01EC55FF4F249180579F4FFC018491C7
:10012000882399F090E0880F991FFC01EA57FF4F50
:10013000A591B491FC01E458FF4F859194918FB73C
:10014000F894EC91E22BEC938FBF089590E0FC01C2
:10015000E859FF4F2491FC01EC55FF4F3491FC010D
:10016000E057FF4FE491EE23C9F0222339F023300A
:1001700001F1A8F4213019F1223029F1F0E0EE0F5D
:10018000FF1FE458FF4FA591B4918FB7F894EC91FD
:10019000611126C030953E233C938FBF08952730D0
:1001A000A9F02830C9F0243049F7809180008F7D74
:1001B00003C0809180008F7780938000DFCF84B56B
:1001C0008F7784BDDBCF84B58F7DFBCF8091B0006E
:1001D0008F778093B000D2CF8091B0008F7DF9CF20
:1001E0003E2BDACF8E3008F08E508770806480937B
:1001F0007C0080917A00806480937A0080917A00FC
:1002000086FDFCCF809178009091790008953FB7EA
:10021000F89480919C0290919D02A0919E02B091D1
:100220009F0226B5A89B05C02F3F19F00196A11D7E
:10023000B11D3FBFBA2FA92F982F8827BC01CD0130
:10024000620F711D811D911D42E0660F771F881F8F
:10025000991F4A95D1F708958F929F92AF92BF92BE
:10026000CF92DF92EF92FF924B015C010E94070157
:100270006B017C010E9407016C197D098E099F09A1
:10028000683E734081059105A8F321E0821A910828
:10029000A108B10888EEC80E83E0D81EE11CF11C4D
:1002A00081149104A104B10429F7FF90EF90DF902D
:1002B000CF90BF90AF909F908F9008952FB7F894F4
:1002C000609198027091990280919A0290919B029C
:1002D0002FBF089508950895AF92BF92CF92DF92F5
:1002E000EF92FF920F931F93CF93DF936C017B01EB
:1002F0008B01040F151FEB015E01AE18BF08C0177C
:10030000D10759F06991D601ED91FC910190F081EE
:10031000E02DC6010995892B79F7C501DF91CF91B1
:100320001F910F91FF90EF90DF90CF90BF90AF9013
:100330000895FC01538D448D252F30E0842F90E0EB
:10034000821B930B541710F0CF96089501970895D0
:10035000FC01918D828D981761F0A28DAE0FBF2F99
:10036000B11D5D968C91928D9F5F9F73928F90E0EF
:1003700008958FEF9FEF0895FC01918D828D98175E
:1003800031F0828DE80FF11D858D90E008958FEF9B
:100390009FEF0895FC01918D228D892F90E0805C64
:1003A0009F4F821B91098F739927089580EA92E0ED
:1003B0000E94CA0121E0892B09F420E0822F0895D0
:1003C00080E090E0892B29F00E94D60181110C94E5
:1003D00000000895FC01A48DA80FB92FB11DA35AE8
:1003E000BF4F2C91848D90E001968F739927848F55
:1003F000A689B7892C93A089B1898C918370806478
:100400008C93938D848D981306C00288F389E02D18
:1004100080818F7D80830895EF92FF920F931F93C9
:10042000CF93DF93EC0181E0888F9B8D8C8D9813A7
:100430001AC0E889F989808185FF15C09FB7F894B3
:10044000EE89FF896083E889F989808183708064FF
:1004500080839FBF81E090E0DF91CF911F910F914A
:10046000FF90EF900895F62E0B8D10E00F5F1F4F59
:100470000F731127E02E8C8D8E110CC00FB607FC68
:10048000FACFE889F989808185FFF5CFCE010E94F6
:10049000EA01F1CFEB8DEC0FFD2FF11DE35AFF4F79
:1004A000F0829FB7F8940B8FEA89FB898081806284
:1004B000CFCFCF93DF93EC01888D8823B9F0AA8941
:1004C000BB89E889F9898C9185FD03C0808186FD0F
:1004D0000DC00FB607FCF7CF8C9185FFF2CF80815E
:1004E00085FFEDCFCE010E94EA01E9CFDF91CF91E8
:1004F000089508952091B001260F3327331F21322C
:100500003105ECF42091F901FC0190E080E0243009
:1005100069F082E00895A091B0012191AC014057AB
:100520005E4FA40FB52FB11D2C930196861798F33B
:100530008091B001680F6093B00180E0089581E080
:1005400008951092F90181E08093F8011092D3018F
:1005500061E082E10E94A60061E083E10E94A600C2
:10056000E9EBF0E080818E7F808380818D7F8083C6
:1005700088E48093B80085E48093BC000895CF930D
:10058000DF9391E0909321028823B9F0C091B800E5
:10059000D091BA008091BC008A7B8093BC0060E05F
:1005A00082E10E94A60060E083E10E94A6000E9412
:1005B000A102D093BA00C093B800DF91CF91089503
:1005C0000895E091290280912802E81730F4F0E0C4
:1005D000E059FE4F808190E008958FEF9FEF0895DE
:1005E00090912902809128022FEF3FEF981748F44D
:1005F000E92FF0E0E059FE4F208130E09F5F9093BB
:100600002902C90108958091280290912902891B2D
:10061000990B0895CF92DF92EF92FF920F931F9361
:10062000CF93DF937C01CB018A012091FA01222331
:1006300089F0EB016B01C40ED51ECC15DD0569F008
:100640006991D701ED91FC910190F081E02DC701F6
:100650000995F3CF642F0E947A02C801DF91CF91F0
:100660001F910F91FF90EF90DF90CF900895CF935F
:10067000DF931F92CDB7DEB769832091FA01222361
:10068000F9F020912602203258F021E030E0FC0100
:100690003383228390E080E00F90DF91CF91089523
:1006A00080912702E82FF0E0E550FE4F998190837A
:1006B0008F5F809327028093260281E090E0ECCF49
:1006C00061E0CE0101960E947A02F7CFCF92DF92CD
:1006D000EF92FF920F931F93CF93DF93FC01C4819E
:1006E00021E02093FA01C0931B021092270210927E
:1006F00026028485682B8DE393E00E943703D09116
:100700002602D13208F092C00E9407016B017C01E1
:100710008091F901811165C082E08093F90181E047
:100720008093F8018FEF8093F7011092F601D09338
:10073000F501ABEFB1E0E5EDF1E080E0D81385C065
:100740001092D4018091D401CC0FC82BC093D40156
:100750008091D301813009F07CC01092D3010E94B6
:1007600007016B017C018091D4018093BB008091D3
:100770001D0290911E02A0911F02B0912002892BB0
:100780008A2B8B2B99F00E94070100911D0210917A
:100790001E0220911F02309120026C197D098E09E2
:1007A0009F090617170728073907E0F18091BC0059
:1007B00083FDD9CF85EC8093BC000E9407016B01BB
:1007C0007C018091F901823009F445C08091F701E4
:1007D0008F3F61F18091F701803241F18091F70103
:1007E00025C080911D0290911E02A0911F02B09120
:1007F0002002892B8A2B8B2B09F48ACF0E940701B8
:1008000000911D0210911E0220911F0230912002C2
:100810006C197D098E099F090617170728073907E4
:1008200008F076CF80911C020E94BF02109227022E
:10083000109226021092FA01DF91CF911F910F9131
:10084000FF90EF90DF90CF9008959D9191938F5FEF
:1008500075CF85EEB0CF80911D0290911E02A091C0
:100860001F02B0912002892B8A2B8B2B09F4A9CF70
:100870000E94070100911D0210911E0220911F028B
:10088000309120026C197D098E099F090617170700
:100890002807390708F095CFC5CF90E080E008958C
:1008A000FC0101900020E9F73197AF01481B590B7B
:1008B000BC0189E493E00C946C018F929F92AF92FB
:1008C000BF920F931F93CF93DF93CDB7DEB7A1975E
:1008D0000FB6F894DEBF0FBECDBF19A2423008F4A8
:1008E0004AE08E010F5D1F4F842E912CB12CA12C5C
:1008F000A50194010E944610E62FB901CA01EA3011
:10090000F4F4E05DD801EE938D01232B242B252BED
:1009100079F790E080E0109719F0CD010E94500423
:10092000A1960FB6F894DEBF0FBECDBFDF91CF9179
:100930001F910F91BF90AF909F908F900895E95CA9
:10094000E1CF0F931F93CF938C01C62F0E946603B4
:100950006C2F6460C8010E9466036C2F6B7FC80116
:100960000E94660383EC90E00197F1F7CF911F910D
:100970000F9108950F931F93CF93DF938C01D62F80
:10098000C42F607F642B0E94A10480E1D89FB00136
:1009900011246C2BC801DF91CF911F910F910C9402
:1009A000A104CF93DF93CDB7DEB728970FB6F894A5
:1009B000DEBF0FBECDBF98E0E1E0F1E0DE011196B1
:1009C00001900D929A95E1F790915103961708F4D2
:1009D0006FEF262F30E0220F331F41E050E04C0F25
:1009E0005D1F240F351FF9016081680F606840E0CA
:1009F00089E493E028960FB6F894DEBF0FBECDBF12
:100A0000DF91CF910C94BA0440E061E089E493E077
:100A10000E94BA048BE39FE10197F1F780915203A2
:100A2000882321F060E080E00C94D104089541E037
:100A30000E94BA0481E090E008954F925F926F9215
:100A40007F928F929F92AF92BF92CF92DF92EF925E
:100A5000FF920F931F93CF936B017C01742EAC0117
:100A60009B010E942C10882399F089E391E0CF919B
:100A70001F910F91FF90EF90DF90CF90BF90AF90BC
:100A80009F908F907F906F905F904F900C94500448
:100A900046015701E894B7F82FEF3FEF4FE75FE7C4
:100AA000C501B4010E942C1081110DC02FEF3FEF42
:100AB0004FE75FE7C501B4010E941C0E18161CF435
:100AC0008DE391E0D4CF2FEF3FEF4FE75FE4C70115
:100AD000B6010E94740F18161CF481E491E0C7CF90
:100AE0002FEF3FEF4FE75FECC701B6010E941C0EEE
:100AF00087FDF3CF20E030E0A901C701B6010E94D5
:100B00001C0E10E000E087FF0CC041E06DE289E4BC
:100B100093E00E94BA04F7FAF094F7F8F09401E039
:100B200010E0C0E060E070E080E09FE37C1641F000
:100B300020E030E040E251E40E94210ECF5FF6CF8A
:100B4000A70196010E94B00D4B015C010E94930E1B
:100B50002B013C014AE00E945D04080F191FCC23C1
:100B6000C9F1C301B2010E94C20E9B01AC01C501D3
:100B7000B4010E94AF0D4B015C0141E06EE289E4DB
:100B800093E00E94BA040F5F1F4FC15018F120E09C
:100B900030E040E251E4C501B4010E94790F2B011D
:100BA0003C010E94930E4B01B12CA12C4AE0C501DF
:100BB000B4010E945D04080F191FC501B4010E9411
:100BC000C20E9B01AC01C301B2010E94AF0D4B01EB
:100BD0005C01DBCFC801CF911F910F91FF90EF9087
:100BE000DF90CF90BF90AF909F908F907F906F904D
:100BF0005F904F90089585ED8093BC0080911D0219
:100C000090911E02A0911F02B09120020796A11D93
:100C1000B11D23E0B695A795979587952A95D1F7AD
:100C20002091BC0024FD03C01092F9010895409169
:100C30001D0250911E0260911F0270912002452BEF
:100C4000462B472B69F30097A105B10541F02AE235
:100C50002A95F1F700C00197A109B109E1CF809170
:100C60001C020C94BF021F920F920FB60F92112418
:100C70002F933F938F939F93AF93BF93809198024D
:100C800090919902A0919A02B0919B0230919702A3
:100C900023E0230F2D3758F50196A11DB11D209398
:100CA00097028093980290939902A0939A02B0932E
:100CB0009B0280919C0290919D02A0919E02B09116
:100CC0009F020196A11DB11D80939C0290939D02ED
:100CD000A0939E02B0939F02BF91AF919F918F917D
:100CE0003F912F910F900FBE0F901F90189526E8FF
:100CF000230F0296A11DB11DD2CF1F920F920FB6E6
:100D00000F9211242F933F934F935F936F937F9391
:100D10008F939F93AF93BF93EF93FF9380EA92E0FB
:100D20000E94EA01FF91EF91BF91AF919F918F9146
:100D30007F916F915F914F913F912F910F900FBED7
:100D40000F901F9018951F920F920FB60F921124BB
:100D50002F938F939F93EF93FF93E091B002F091C5
:100D6000B1028081E091B602F091B70282FD1BC012
:100D700090818091B9028F5F8F732091BA028217A0
:100D800041F0E091B902F0E0E056FD4F958F80937D
:100D9000B902FF91EF919F918F912F910F900FBE0C
:100DA0000F901F9018958081F4CF1F920F920FB66D
:100DB0000F9211242F933F934F935F936F937F93E1
:100DC0008F939F93AF93BF93EF93FF938091B9005D
:100DD000887F803609F44AC0F0F5883209F4A7C04C
:100DE00018F5803109F49BC0B8F4882309F4F9C0E0
:100DF000883009F494C0FF91EF91BF91AF919F911A
:100E00008F917F916F915F914F913F912F910F90B3
:100E10000FBE0F901F901895883109F488C080325A
:100E200051F78093F70114C0803409F49DC040F459
:100E30008033B9F38833F9F68093F70185ECB0C0BD
:100E4000803509F485C0883509F496C0883499F650
:100E50000E94FB05D0CF883909F48CC038F588375B
:100E600029F050F4883611F0803729F683E080931A
:100E7000F9011092D20157C0883809F47BC080393B
:100E800019F0803809F0B7CF8091D201803208F094
:100E900071C0E091D20181E08E0F8093D2018091E8
:100EA000BB00F0E0EE54FE4F80833DC0803B39F044
:100EB000E0F4803A09F479C0883A09F09CCF84E0E4
:100EC0008093F9011092B1011092B001E0912402D7
:100ED000F091250209958091B00181110FC081E048
:100EE0008093B0011092900109C0803C09F4A6CF14
:100EF000883C09F4A3CF883B09F07DCFE091B10194
:100F000081E08E0F8093B101F0E0E057FE4F8081C9
:100F10008093BB009091B1018091B00129C0809174
:100F2000D4018093BB0085EC8093BC0064CF90918A
:100F3000F6018091F501981758F5E091F60181E0EE
:100F40008E0F8093F601F0E0EB52FE4F8081E9CFE7
:100F5000E091F60181E08E0F8093F6018091BB0055
:100F6000F0E0EB52FE4F80839091F6018091F50105
:100F70009817C8F285E8D8CFE091F60181E08E0F8E
:100F80008093F6018091BB00F0E0EB52FE4F80832E
:100F90008091F80181115CCF81E08093D30184EAD4
:100FA0008093BC001092F90126CF85EC8093BC00A1
:100FB0001092F9018091D201803230F4E091D20197
:100FC000F0E0EE54FE4F10826091D20170E0E091AB
:100FD0002202F091230282EB91E009951092D20156
:100FE0000ACF1092F70134CFE0EAF2E013821282C6
:100FF00088EE93E0A0E0B0E084839583A683B78376
:101000002DE031E03183208325EC30E035872487E3
:1010100024EC30E03787268720EC30E0318B208BC2
:1010200021EC30E0338B228B22EC30E0358B248BAB
:1010300026EC30E0378B268B118E128E138E148E99
:10104000EDE3F3E01382128284839583A683B78352
:101050008FE191E091838083E9E4F3E013821282CF
:1010600081E391E091838083118687E2848380E12C
:10107000828782E0838714860895CF93DF93CDB76C
:10108000DEB72E970FB6F894DEBF0FBECDBF7894B3
:1010900084B5826084BD84B5816084BD85B582607D
:1010A00085BD85B5816085BD80916E00816080932E
:1010B0006E00109281008091810082608093810097
:1010C00080918100816080938100809180008160A7
:1010D000809380008091B10084608093B100809102
:1010E000B00081608093B00080917A00846080932A
:1010F0007A0080917A00826080937A0080917A00F1
:10110000816080937A0080917A00806880937A0071
:101110001092C100E091B002F091B10282E08083B0
:10112000E091AC02F091AD021082E091AE02F0913C
:10113000AF028FEC80831092B802E091B402F0917C
:10114000B50286E08083E091B202F091B302808123
:1011500080618083E091B202F091B3028081886067
:101160008083E091B202F091B30280818068808335
:10117000E091B202F091B30280818F7D8083109262
:1011800029021092280210922702109226020E9431
:10119000A1028AE691E090932502809324028BE6D7
:1011A00091E090932302809322021092210288EB17
:1011B0009BE0A0E0B0E080931D0290931E02A093FC
:1011C0001F02B093200281E080931C020E94A102C2
:1011D00010924E0380915403823018F098E090935F
:1011E0004E038093510362E370E080E090E00E9440
:1011F0002C016091550389E493E00E94660368EE38
:1012000073E080E090E00E942C0160E389E493E0C9
:101210000E94A1048BE496E40197F1F760E389E46E
:1012200093E00E94A1042BE436E4C9010197F1F791
:1012300060E389E493E00E94A10483E592E00197D2
:10124000F1F760E289E493E00E94A10460914E030B
:10125000606240E089E493E00E94BA0484E08093F5
:101260004F0340E06CE089E493E00E94BA040E94DE
:10127000040582E08093500340E066E089E493E057
:101280000E94BA0440E062E089E493E00E94BA045C
:101290008BE39FE10197F1F788E08093550360E0CD
:1012A00089E493E00E9466038DE00E94870083E05A
:1012B0000E9487008FE090E09093500280934F024D
:1012C0008DEC9CEAA9E0B4E480935302909354021D
:1012D000A0935502B093560286E696E6A6E6BFEBCB
:1012E00080935B0290935C02A0935D02B0935E02D8
:1012F00080E090E0A0E0B4E480936F0290937002ED
:10130000A0937102B093720220E130E03093520258
:10131000209351024CE55FE86AEA70E4409357027B
:10132000509358026093590270935A02809373024B
:1013300090937402A0937502B093760260E080E00F
:101340000E94D10485E491E00E94500461E080E0B5
:101350000E94D1048EE491E00E94500460ED77E099
:1013600080E090E00E942C010E9404050E945E0132
:1013700060933702709338028093390290933A0257
:101380009EE490937C0062E070E080E090E00E9438
:101390002C0180917A00806480937A0080917A0099
:1013A00086FDFCCF809178002091790030E0322FCB
:1013B0002227032E000C440B550B282B60E070E312
:1013C00081E190E00E94681029873A874B875C870B
:1013D0000E945E014B015C0180914F020E94F2006D
:1013E0009093940280939302BC01990F880B990B00
:1013F0000E94C40E6B017C012DEC3CEC4CE054E4EB
:101400000E941C0E87FF0CC0B1E0B98326E636E6C9
:1014100046EE53E4C701B6010E94740F18160CF093
:1014200019820E945E01681979098A099B09613D48
:1014300077408105910518F4A981AA2369F20E94D9
:101440005E016D837E838F83988710E000E0312CEE
:10145000212C0E945E012D813E814F815885621BA7
:10146000730B840B950B603D77408105910508F067
:1014700046C10F5F1F4F8091670290916802A09153
:101480006902B0916A028093630290936402A09310
:101490006502B093660280914F020E94F200909321
:1014A000600280935F02809151020E94F2009E8749
:1014B0008D87909362028093610280906F0290907A
:1014C0007002A0907102B090720280915F029091C0
:1014D00060029A838983BC01990F880B990B0E9443
:1014E000C40E6B017C01A50194010E94AF0D20E0A8
:1014F00030E040E85AE30E94790FA50194010E9470
:10150000B00D9B01AC0120936F02309370024093A9
:10151000710250937202C701B6010E94AF0D4B01D8
:101520005C018092670290926802A0926902B09278
:101530006A0240907302509074026090750270903D
:101540007602AD85BE85BD01BB0F880B990B0E944D
:10155000C40E6B017C01A30192010E94AF0D20E03B
:1015600030E040E85AE30E94790FA30192010E9403
:10157000B00D9B01AC012093730230937402409331
:10158000750250937602C701B6010E94AF0D6B0140
:101590007C01C0926B02D0926C02E0926D02F092DC
:1015A0006E02A5019401C501B4010E94790F9B014F
:1015B000AC0120937B0230937C0240937D025093D8
:1015C0007E0260917F0270918002809181029091F1
:1015D00082020E94B00D60937F027093800280931C
:1015E000810290938202A7019601C701B6010E9471
:1015F000790F9B01AC0120938302309384024093C6
:1016000085025093860260918702709188028091D2
:10161000890290918A020E94B00D609387027093B4
:1016200088028093890290938A02409063025090CE
:1016300064026090650270906602A3019201C50188
:10164000B4010E94AF0D20915B0230915C02409189
:101650005D0250915E020E94790FA30192010E94E7
:10166000B00D9B01AC012093770230937802409338
:10167000790250937A02C701B6010E94790F9B014B
:10168000AC0120938B0230938C0240938D025093D7
:101690008E0260918F0270919002809191029091E0
:1016A00092020E94B00D60938F027093900280931B
:1016B000910290939202809196028093950280917C
:1016C00093029091940229813A81821793070CF03A
:1016D000CAC131E030939602809196020130110523
:1016E00011F48093950290919502981719F04FEF9D
:1016F000241A340A34E12316310409F0AACE4985AC
:101700005A85BA01550F880B990B0E94C40E20E030
:1017100030E04AE754E40E94210E20E030E040E847
:101720005AE30E94790F2B013C0120915302309122
:10173000540240915502509156020E94790F4B017C
:101740005C01B80190E080E00E94C20E6B017C0158
:10175000AC019B0160917F027091800280918102B7
:10176000909182020E94210E0E94EC0F9B01AC011D
:10177000C501B4010E94790F69877A878B879C879E
:1017800060934702709348028093490290934A0203
:1017900020915702309158024091590250915A02BB
:1017A000C301B2010E94790F2B013C01A7019601F0
:1017B00060918702709188028091890290918A02DB
:1017C0000E94210E0E94EC0F9B01AC01C301B201EB
:1017D0000E94790F69837A838B839C8360934B0289
:1017E00070934C0280934D0290934E02A30192019C
:1017F000C501B4010E94790F20918F0230919002AF
:1018000040919102509192020E94790FA701960196
:101810000E94210E4B015C0180923B0290923C029F
:10182000A0923D02B0923E0229813A814B815C81B7
:1018300069857A858B859C850E94790F6D837E836F
:101840008F83988760933F02709340028093410298
:10185000909342029B01AC01C501B4010E94210E8C
:101860006B017C01C0924302D0924402E092450297
:10187000F092460210927F02109280021092810232
:1018800010928202109287021092880210928902AE
:1018900010928A0210928F0210929002109291027E
:1018A000109292022DEC3CEC4CE45DE369817A816C
:1018B0008B819C810E941C0E87FDD8C020E030E007
:1018C000A901C701B6010E941C0E87FDDDC020E002
:1018D00030E040E85FE3C701B6010E94740F1816BC
:1018E0000CF4D6C00E945E012B013C0180913702AE
:1018F00090913802A0913902B0913A02A30192016D
:10190000281B390B4A0B5B0BCA01B9014092370205
:10191000509238026092390270923A020E94C20ECE
:1019200020E03AEB4BE55AE40E94210EA501940118
:101930000E94790F9B01AC016091330270913402D7
:1019400080913502909136020E94B00D609333026F
:1019500070933402809335029093360280912F0267
:1019600090913002A0913102B0913202A301920114
:10197000281B390B4A0B5B0BDA01C901883B9B40E2
:10198000A105B10580F08091000140922F02509294
:101990003002609231027092320241E084278093DB
:1019A00000010E9404058091000160E0882309F491
:1019B00076C080E00E94D10489E591E00E94500445
:1019C00041E069857A858B859C850E941D0560E0D4
:1019D00089E00E94D10483E691E00E94500443E034
:1019E00069817A818B819C810E941D0561E080E084
:1019F0000E94D1048DE591E00E94500442E0C701AD
:101A0000B6010E941D0561E089E00E94D10482E6D2
:101A100091E00E94500440E06D817E818F81988525
:101A20000E941D0520E030E040E450E469817A81A5
:101A30008B819C810E94740F87FD4FC061E083E021
:101A40000E94A60061E08DE00E94A60080E090E088
:101A5000892B09F495CC0E94D601882309F490CCF7
:101A60000E9400008DCC1092960236CE1D821E82FE
:101A70001F82188619821A821B821C82812C912C4B
:101A80005401750164012ECFC12CD12C76012ACFCF
:101A9000C12CD12C80E8E82E8FE3F82E23CF80E0F4
:101AA0000E94D10486E691E00E94500441E0C50105
:101AB000B4010E941D0561E080E00E94D1048AE625
:101AC00091E00E9450046091330270913402809141
:101AD00035029091360242E0A3CF20E030E040E2B0
:101AE00050E469817A818B819C810E94740F87FD0B
:101AF0002BC080912B0290912C02A0912D02B091CD
:101B00002E02A3019201281B390B4A0B5B0BDA0151
:101B1000C901843F9140A105B10508F497CF4092D7
:101B20002B0250922C0260922D0270922E02409154
:101B30002A0251E04527498340932A02642F83E01B
:101B40000E94A60069817FCF60E083E00E94A6002A
:101B500060E08DE00E94A60010922A0277CF5058D4
:101B6000BB27AA270E94C70D0C943A0F0E942C0F86
:101B700038F00E94330F20F039F49F3F19F426F417
:101B80000C94290F0EF4E095E7FB0C94230FE92F3A
:101B90000E944B0F58F3BA17620773078407950723
:101BA00020F079F4A6F50C946D0F0EF4E0950B2E51
:101BB000BA2FA02D0B01B90190010C01CA01A0019F
:101BC0001124FF27591B99F0593F50F4503E68F1FA
:101BD0001A16F040A22F232F342F4427585FF3CF3B
:101BE000469537952795A795F0405395C9F77EF40C
:101BF0001F16BA0B620B730B840BBAF09150A1F055
:101C0000FF0FBB1F661F771F881FC2F70EC0BA0FDA
:101C1000621F731F841F48F4879577956795B79562
:101C2000F7959E3F08F0B0CF9395880F08F099275D
:101C3000EE0F9795879508950E94FF0E08F481E0B6
:101C400008950E94350E0C943A0F0E94330F58F0FD
:101C50000E942C0F40F029F45F3F29F00C94230FD1
:101C600051110C946E0F0C94290F0E944B0F68F3C6
:101C70009923B1F3552391F3951B550BBB27AA2745
:101C800062177307840738F09F5F5F4F220F331F7F
:101C9000441FAA1FA9F335D00E2E3AF0E0E832D047
:101CA00091505040E695001CCAF72BD0FE2F29D04A
:101CB000660F771F881FBB1F261737074807AB071C
:101CC000B0E809F0BB0B802DBF01FF2793585F4F91
:101CD0003AF09E3F510578F00C94230F0C946E0F50
:101CE0005F3FE4F3983ED4F3869577956795B79573
:101CF000F7959F5FC9F7880F911D9695879597F97E
:101D00000895E1E0660F771F881FBB1F62177307F6
:101D10008407BA0720F0621B730B840BBA0BEE1F0B
:101D200088F7E09508950E94530F88F09F5798F028
:101D3000B92F9927B751B0F0E1F0660F771F881FD0
:101D4000991F1AF0BA95C9F714C0B13091F00E94EA
:101D50006D0FB1E008950C946D0F672F782F8827D1
:101D6000B85F39F0B93FCCF3869577956795B39511
:101D7000D9F73EF490958095709561957F4F8F4F80
:101D80009F4F0895E89409C097FB3EF49095809585
:101D9000709561957F4F8F4F9F4F9923A9F0F92F31
:101DA00096E9BB279395F695879577956795B795AF
:101DB000F111F8CFFAF4BB0F11F460FF1BC06F5F95
:101DC0007F4F8F4F9F4F16C0882311F096E911C0A7
:101DD000772321F09EE8872F762F05C0662371F0C8
:101DE00096E8862F70E060E02AF09A95660F771FDC
:101DF000881FDAF7880F9695879597F90895990FB8
:101E00000008550FAA0BE0E8FEEF16161706E807C4
:101E1000F907C0F012161306E407F50798F0621BE5
:101E2000730B840B950B39F40A2661F0232B242BBA
:101E3000252B21F408950A2609F4A140A6958FEFD9
:101E4000811D811D089597F99F6780E870E060E02B
:101E500008959FEF80EC089500240A941616170643
:101E600018060906089500240A941216130614068B
:101E700005060895092E0394000C11F4882352F0EE
:101E8000BB0F40F4BF2B11F460FF04C06F5F7F4FA6
:101E90008F4F9F4F089557FD9058440F551F59F08D
:101EA0005F3F71F04795880F97FB991F61F09F3F47
:101EB00079F087950895121613061406551FF2CF70
:101EC0004695F1DF08C0161617061806991FF1CFC0
:101ED00086957105610508940895E894BB276627E7
:101EE0007727CB0197F908950E94FF0E08F48FEF32
:101EF00008950E948C0F0C943A0F0E942C0F38F01A
:101F00000E94330F20F0952311F00C94230F0C94B2
:101F1000290F11240C946E0F0E944B0F70F3959FA4
:101F2000C1F3950F50E0551F629FF001729FBB27D0
:101F3000F00DB11D639FAA27F00DB11DAA1F649F6C
:101F40006627B00DA11D661F829F2227B00DA11D1F
:101F5000621F739FB00DA11D621F839FA00D611DA5
:101F6000221F749F3327A00D611D231F849F600DC6
:101F7000211D822F762F6A2F11249F5750409AF0EF
:101F8000F1F088234AF0EE0FFF1FBB1F661F771F7B
:101F9000881F91505040A9F79E3F510580F00C9446
:101FA000230F0C946E0F5F3FE4F3983ED4F38695B5
:101FB00077956795B795F795E7959F5FC1F7FE2BE6
:101FC000880F911D9695879597F9089519F416F441
:101FD0000C94290F0C9431100E94530FB8F39923DD
:101FE000C9F3B6F39F57550B87FF0E943F1000249B
:101FF000A0E640EA900180585695979528F4805CB9
:10200000660F771F881F20F026173707480730F420
:10201000621B730B840B202931294A2BA695179438
:102020000794202531254A2758F7660F771F881F08
:1020300020F026173707480730F4620B730B840B28
:10204000200D311D411DA09581F7B901842F9158B4
:10205000880F9695879508950E94FF0E880B990B1F
:1020600008959F3F31F0915020F4879577956795BB
:10207000B795880F911D9695879597F9089591507A
:102080005040660F771F881FD2F70895A1E21A2EDD
:10209000AA1BBB1BFD010DC0AA1FBB1FEE1FFF1F0C
:1020A000A217B307E407F50720F0A21BB30BE40B5C
:1020B000F50B661F771F881F991F1A9469F76095A3
:1020C0007095809590959B01AC01BD01CF0108955D
:1020D000052E97FB1EF400940E947F1057FD07D039
:1020E0000E94461007FC03D04EF40C947F105095CC
:1020F0004095309521953F4F4F4F5F4F08959095F4
:102100008095709561957F4F8F4F9F4F0895EE0F8B
:0E211000FF1F0590F491E02D0994F894FFCF85
:10211E00010000400014005400000000000C026C8E
:10212E000199015902CA01A801BC01000000003743
:10213E00030A034D04E0020303F002E10200000073
:10214E000017056C014D0479026E616E00696E66B2
:10215E00006F76660056412D4D65746572004C6FAA
:10216E006164696E672E2E2E0056203A005046206E
:10217E003A0056413A0057203A005768203A20005C
:00000001FF
